{
  "contractName": "MovieMark",
  "abi": [
    {
      "constant": true,
      "inputs": [
        {
          "name": "",
          "type": "uint256"
        }
      ],
      "name": "opinions",
      "outputs": [
        {
          "name": "author",
          "type": "address"
        },
        {
          "name": "movieTitle",
          "type": "string"
        },
        {
          "name": "mark",
          "type": "int256"
        }
      ],
      "payable": false,
      "stateMutability": "view",
      "type": "function"
    },
    {
      "constant": true,
      "inputs": [
        {
          "name": "movieTitle",
          "type": "string"
        }
      ],
      "name": "getMovieMark",
      "outputs": [
        {
          "name": "",
          "type": "int256"
        }
      ],
      "payable": false,
      "stateMutability": "view",
      "type": "function"
    },
    {
      "constant": false,
      "inputs": [
        {
          "name": "movieTitle",
          "type": "string"
        },
        {
          "name": "mark",
          "type": "int256"
        }
      ],
      "name": "sendNewOpinion",
      "outputs": [
        {
          "name": "",
          "type": "uint256"
        }
      ],
      "payable": false,
      "stateMutability": "nonpayable",
      "type": "function"
    },
    {
      "constant": true,
      "inputs": [],
      "name": "getOpinionCount",
      "outputs": [
        {
          "name": "entityCount",
          "type": "uint256"
        }
      ],
      "payable": false,
      "stateMutability": "view",
      "type": "function"
    },
    {
      "constant": true,
      "inputs": [
        {
          "name": "author",
          "type": "address"
        },
        {
          "name": "movieTitle",
          "type": "string"
        }
      ],
      "name": "hasVoted",
      "outputs": [
        {
          "name": "",
          "type": "bool"
        }
      ],
      "payable": false,
      "stateMutability": "view",
      "type": "function"
    },
    {
      "constant": true,
      "inputs": [
        {
          "name": "index",
          "type": "uint256"
        }
      ],
      "name": "getOpinionMovieTitle",
      "outputs": [
        {
          "name": "",
          "type": "string"
        }
      ],
      "payable": false,
      "stateMutability": "view",
      "type": "function"
    }
  ],
  "bytecode": "0x6060604052341561000f57600080fd5b610b2d8061001e6000396000f300606060405260043610610078576000357c0100000000000000000000000000000000000000000000000000000000900463ffffffff1680631754b3151461007d57806367a9e9031461017057806389934717146101e157806396ba15a414610247578063c684706014610270578063e634f03214610304575b600080fd5b341561008857600080fd5b61009e60048080359060200190919050506103a0565b604051808473ffffffffffffffffffffffffffffffffffffffff1673ffffffffffffffffffffffffffffffffffffffff1681526020018060200183815260200182810382528481815460018160011615610100020316600290048152602001915080546001816001161561010002031660029004801561015f5780601f106101345761010080835404028352916020019161015f565b820191906000526020600020905b81548152906001019060200180831161014257829003601f168201915b505094505050505060405180910390f35b341561017b57600080fd5b6101cb600480803590602001908201803590602001908080601f016020809104026020016040519081016040528093929190818152602001838380828437820191505050505050919050506103f8565b6040518082815260200191505060405180910390f35b34156101ec57600080fd5b610245600480803590602001908201803590602001908080601f01602080910402602001604051908101604052809392919081815260200183838082843782019150505050505091908035906020019091905050610594565b005b341561025257600080fd5b61025a6106a3565b6040518082815260200191505060405180910390f35b341561027b57600080fd5b6102ea600480803573ffffffffffffffffffffffffffffffffffffffff1690602001909190803590602001908201803590602001908080601f016020809104026020016040519081016040528093929190818152602001838380828437820191505050505050919050506106af565b604051808215151515815260200191505060405180910390f35b341561030f57600080fd5b6103256004808035906020019091905050610856565b6040518080602001828103825283818151815260200191508051906020019080838360005b8381101561036557808201518184015260208101905061034a565b50505050905090810190601f1680156103925780820380516001836020036101000a031916815260200191505b509250505060405180910390f35b6000818154811015156103af57fe5b90600052602060002090600302016000915090508060000160009054906101000a900473ffffffffffffffffffffffffffffffffffffffff169080600101908060020154905083565b6000806000806000925060009150600090505b60008054905081101561054c57846040518082805190602001908083835b60208310151561044e5780518252602082019150602081019050602083039250610429565b6001836020036101000a03801982511681845116808217855250505050505090500191505060405180910390206000191660008281548110151561048e57fe5b906000526020600020906003020160010160405180828054600181600116156101000203166002900480156104fa5780601f106104d85761010080835404028352918201916104fa565b820191906000526020600020905b8154815290600101906020018083116104e6575b5050915050604051809103902060001916141561053f5760008181548110151561052057fe5b9060005260206000209060030201600201548301925081806001019250505b808060010191505061040b565b600082131561056857818381151561056057fe5b05935061058c565b7fffffffffffffffffffffffffffffffffffffffffffffffffffffffffffffffff93505b505050919050565b61059c61091e565b816000131580156105ae575060058213155b15156105b957600080fd5b6105c333846106af565b1515156105cf57600080fd5b6060604051908101604052803373ffffffffffffffffffffffffffffffffffffffff16815260200184815260200183815250905060008054806001018281610617919061095c565b9160005260206000209060030201600083909190915060008201518160000160006101000a81548173ffffffffffffffffffffffffffffffffffffffff021916908373ffffffffffffffffffffffffffffffffffffffff160217905550602082015181600101908051906020019061069092919061098e565b5060408201518160020155505050505050565b60008080549050905090565b600080600090505b60008054905081101561084a57826040518082805190602001908083835b6020831015156106fa57805182526020820191506020810190506020830392506106d5565b6001836020036101000a03801982511681845116808217855250505050505090500191505060405180910390206000191660008281548110151561073a57fe5b906000526020600020906003020160010160405180828054600181600116156101000203166002900480156107a65780601f106107845761010080835404028352918201916107a6565b820191906000526020600020905b815481529060010190602001808311610792575b505091505060405180910390206000191614801561082f57508373ffffffffffffffffffffffffffffffffffffffff166000828154811015156107e557fe5b906000526020600020906003020160000160009054906101000a900473ffffffffffffffffffffffffffffffffffffffff1673ffffffffffffffffffffffffffffffffffffffff16145b1561083d576001915061084f565b80806001019150506106b7565b600091505b5092915050565b61085e610a0e565b60008281548110151561086d57fe5b90600052602060002090600302016001018054600181600116156101000203166002900480601f0160208091040260200160405190810160405280929190818152602001828054600181600116156101000203166002900480156109125780601f106108e757610100808354040283529160200191610912565b820191906000526020600020905b8154815290600101906020018083116108f557829003601f168201915b50505050509050919050565b606060405190810160405280600073ffffffffffffffffffffffffffffffffffffffff16815260200161094f610a22565b8152602001600081525090565b815481835581811511610989576003028160030283600052602060002091820191016109889190610a36565b5b505050565b828054600181600116156101000203166002900490600052602060002090601f016020900481019282601f106109cf57805160ff19168380011785556109fd565b828001600101855582156109fd579182015b828111156109fc5782518255916020019190600101906109e1565b5b509050610a0a9190610a94565b5090565b602060405190810160405280600081525090565b602060405190810160405280600081525090565b610a9191905b80821115610a8d57600080820160006101000a81549073ffffffffffffffffffffffffffffffffffffffff0219169055600182016000610a7c9190610ab9565b600282016000905550600301610a3c565b5090565b90565b610ab691905b80821115610ab2576000816000905550600101610a9a565b5090565b90565b50805460018160011615610100020316600290046000825580601f10610adf5750610afe565b601f016020900490600052602060002090810190610afd9190610a94565b5b505600a165627a7a72305820c7557198714623fd0be4332e7f9dd197a37663527e3af81e147a90e14e4c0b030029",
  "source": "pragma solidity ^0.4.0;\r\n\r\ncontract MovieMark {\r\n\r\n   struct Opinion {\r\n       address author;\r\n       string movieTitle;\r\n       int mark;\r\n   }\r\n\r\n   Opinion[] public opinions;\r\n\r\n   function hasVoted(address author, string movieTitle) public constant returns (bool) {\r\n       for (uint i = 0; i < opinions.length; i++) {\r\n           if (keccak256(opinions[i].movieTitle) == keccak256(movieTitle) &&\r\n               opinions[i].author == author) {\r\n                   return true;\r\n           }\r\n       }\r\n       return false;\r\n   }\r\n\r\n   function getOpinionCount() public constant returns(uint entityCount) {\r\n       return opinions.length;\r\n   }\r\n\r\n   function getOpinionMovieTitle(uint index) public constant returns(string){\r\n       return opinions[index].movieTitle;\r\n   }\r\n\r\n   function sendNewOpinion(string movieTitle, int mark) public {\r\n       require(0 <= mark && mark <= 5);\r\n       require(!hasVoted(msg.sender, movieTitle));\r\n\r\n       Opinion memory opinion = Opinion(msg.sender, movieTitle, mark);\r\n       opinions.push(opinion);\r\n   }\r\n\r\n   function getMovieMark(string movieTitle) public constant returns (int) {\r\n       int sum = 0;\r\n       int numberMark = 0;\r\n       for (uint i = 0; i < opinions.length; i++) {\r\n           if (keccak256(opinions[i].movieTitle) == keccak256(movieTitle)) {\r\n               sum += opinions[i].mark;\r\n               numberMark++;\r\n           }\r\n       }\r\n       \r\n       if (numberMark > 0) return sum/numberMark;\r\n       else return -1;\r\n   }\r\n}",
  "sourcePath": "C:\\Users\\Vincent\\Desktop\\Cours 5AL\\Blockchain\\projet\\code\\blockchain\\contracts\\MovieMark.sol",
  "compiler": {
    "name": "solc",
    "version": "0.4.18+commit.9cf6e910.Emscripten.clang"
  },
  "schemaVersion": "1.0.1",
  "updatedAt": "2017-12-13T10:30:17.880Z"
}