{
  "contractName": "MovieMark",
  "abi": [
    {
      "constant": true,
      "inputs": [
        {
          "name": "",
          "type": "uint256"
        }
      ],
      "name": "opinions",
      "outputs": [
        {
          "name": "author",
          "type": "address"
        },
        {
          "name": "movieTitle",
          "type": "string"
        },
        {
          "name": "mark",
          "type": "int256"
        }
      ],
      "payable": false,
      "stateMutability": "view",
      "type": "function"
    },
    {
      "constant": true,
      "inputs": [
        {
          "name": "movieTitle",
          "type": "string"
        }
      ],
      "name": "getMovieMark",
      "outputs": [
        {
          "name": "",
          "type": "int256"
        }
      ],
      "payable": false,
      "stateMutability": "view",
      "type": "function"
    },
    {
      "constant": false,
      "inputs": [
        {
          "name": "movieTitle",
          "type": "string"
        },
        {
          "name": "mark",
          "type": "int256"
        }
      ],
      "name": "sendNewOpinion",
      "outputs": [
        {
          "name": "",
          "type": "uint256"
        }
      ],
      "payable": false,
      "stateMutability": "nonpayable",
      "type": "function"
    },
    {
      "constant": true,
      "inputs": [],
      "name": "getOpinionCount",
      "outputs": [
        {
          "name": "entityCount",
          "type": "uint256"
        }
      ],
      "payable": false,
      "stateMutability": "view",
      "type": "function"
    },
    {
      "constant": true,
      "inputs": [
        {
          "name": "author",
          "type": "address"
        },
        {
          "name": "movieTitle",
          "type": "string"
        }
      ],
      "name": "hasVoted",
      "outputs": [
        {
          "name": "",
          "type": "bool"
        }
      ],
      "payable": false,
      "stateMutability": "view",
      "type": "function"
    },
    {
      "constant": true,
      "inputs": [
        {
          "name": "index",
          "type": "uint256"
        }
      ],
      "name": "getOpinionMovieTitle",
      "outputs": [
        {
          "name": "",
          "type": "string"
        }
      ],
      "payable": false,
      "stateMutability": "view",
      "type": "function"
    }
  ],
  "bytecode": "0x6060604052341561000f57600080fd5b610b478061001e6000396000f300606060405260043610610078576000357c0100000000000000000000000000000000000000000000000000000000900463ffffffff1680631754b3151461007d57806367a9e9031461017057806389934717146101e157806396ba15a41461025b578063c684706014610284578063e634f03214610318575b600080fd5b341561008857600080fd5b61009e60048080359060200190919050506103b4565b604051808473ffffffffffffffffffffffffffffffffffffffff1673ffffffffffffffffffffffffffffffffffffffff1681526020018060200183815260200182810382528481815460018160011615610100020316600290048152602001915080546001816001161561010002031660029004801561015f5780601f106101345761010080835404028352916020019161015f565b820191906000526020600020905b81548152906001019060200180831161014257829003601f168201915b505094505050505060405180910390f35b341561017b57600080fd5b6101cb600480803590602001908201803590602001908080601f0160208091040260200160405190810160405280939291908181526020018383808284378201915050505050509190505061040c565b6040518082815260200191505060405180910390f35b34156101ec57600080fd5b610245600480803590602001908201803590602001908080601f016020809104026020016040519081016040528093929190818152602001838380828437820191505050505050919080359060200190919050506105a8565b6040518082815260200191505060405180910390f35b341561026657600080fd5b61026e6106bf565b6040518082815260200191505060405180910390f35b341561028f57600080fd5b6102fe600480803573ffffffffffffffffffffffffffffffffffffffff1690602001909190803590602001908201803590602001908080601f016020809104026020016040519081016040528093929190818152602001838380828437820191505050505050919050506106cb565b604051808215151515815260200191505060405180910390f35b341561032357600080fd5b6103396004808035906020019091905050610870565b6040518080602001828103825283818151815260200191508051906020019080838360005b8381101561037957808201518184015260208101905061035e565b50505050905090810190601f1680156103a65780820380516001836020036101000a031916815260200191505b509250505060405180910390f35b6000818154811015156103c357fe5b90600052602060002090600302016000915090508060000160009054906101000a900473ffffffffffffffffffffffffffffffffffffffff169080600101908060020154905083565b6000806000806000925060009150600090505b60008054905081101561056057846040518082805190602001908083835b602083101515610462578051825260208201915060208101905060208303925061043d565b6001836020036101000a0380198251168184511680821785525050505050509050019150506040518091039020600019166000828154811015156104a257fe5b9060005260206000209060030201600101604051808280546001816001161561010002031660029004801561050e5780601f106104ec57610100808354040283529182019161050e565b820191906000526020600020905b8154815290600101906020018083116104fa575b505091505060405180910390206000191614156105535760008181548110151561053457fe5b9060005260206000209060030201600201548301925081806001019250505b808060010191505061041f565b600082131561057c57818381151561057457fe5b0593506105a0565b7fffffffffffffffffffffffffffffffffffffffffffffffffffffffffffffffff93505b505050919050565b60006105b2610938565b600083121515156105c257600080fd5b600583131515156105d257600080fd5b6105dc33856106cb565b1515156105e857600080fd5b6060604051908101604052803373ffffffffffffffffffffffffffffffffffffffff168152602001858152602001848152509050600080548060010182816106309190610976565b9160005260206000209060030201600083909190915060008201518160000160006101000a81548173ffffffffffffffffffffffffffffffffffffffff021916908373ffffffffffffffffffffffffffffffffffffffff16021790555060208201518160010190805190602001906106a99291906109a8565b5060408201518160020155505091505092915050565b60008080549050905090565b600080600090505b60008054905081101561086457826040518082805190602001908083835b60208310151561071657805182526020820191506020810190506020830392506106f1565b6001836020036101000a03801982511681845116808217855250505050505090500191505060405180910390206000191660008281548110151561075657fe5b906000526020600020906003020160010160405180828054600181600116156101000203166002900480156107c25780601f106107a05761010080835404028352918201916107c2565b820191906000526020600020905b8154815290600101906020018083116107ae575b50509150506040518091039020600019161415610857578373ffffffffffffffffffffffffffffffffffffffff166000828154811015156107ff57fe5b906000526020600020906003020160000160009054906101000a900473ffffffffffffffffffffffffffffffffffffffff1673ffffffffffffffffffffffffffffffffffffffff1614156108565760019150610869565b5b80806001019150506106d3565b600091505b5092915050565b610878610a28565b60008281548110151561088757fe5b90600052602060002090600302016001018054600181600116156101000203166002900480601f01602080910402602001604051908101604052809291908181526020018280546001816001161561010002031660029004801561092c5780601f106109015761010080835404028352916020019161092c565b820191906000526020600020905b81548152906001019060200180831161090f57829003601f168201915b50505050509050919050565b606060405190810160405280600073ffffffffffffffffffffffffffffffffffffffff168152602001610969610a3c565b8152602001600081525090565b8154818355818115116109a3576003028160030283600052602060002091820191016109a29190610a50565b5b505050565b828054600181600116156101000203166002900490600052602060002090601f016020900481019282601f106109e957805160ff1916838001178555610a17565b82800160010185558215610a17579182015b82811115610a165782518255916020019190600101906109fb565b5b509050610a249190610aae565b5090565b602060405190810160405280600081525090565b602060405190810160405280600081525090565b610aab91905b80821115610aa757600080820160006101000a81549073ffffffffffffffffffffffffffffffffffffffff0219169055600182016000610a969190610ad3565b600282016000905550600301610a56565b5090565b90565b610ad091905b80821115610acc576000816000905550600101610ab4565b5090565b90565b50805460018160011615610100020316600290046000825580601f10610af95750610b18565b601f016020900490600052602060002090810190610b179190610aae565b5b505600a165627a7a723058206aaef50848e826daf30d4f1f3f6c65a77d60a88d22a1b1e04197803e6887a0a80029",
  "source": "pragma solidity ^0.4.0;\n\ncontract MovieMark {\n\n   struct Opinion {\n       address author;\n       string movieTitle;\n       int mark;\n   }\n\n   Opinion[] public opinions;\n\n   function hasVoted(address author, string movieTitle) public constant returns (bool) {\n       for(uint i = 0; i < opinions.length; i++){\n           if(keccak256(opinions[i].movieTitle) == keccak256(movieTitle)){\n               if(opinions[i].author == author)\n                   return true;\n           }\n       }\n       return false;\n   }\n\n   function getOpinionCount() public constant returns(uint entityCount) {\n       return opinions.length;\n   }\n\n   function getOpinionMovieTitle(uint index) public constant returns(string){\n       return opinions[index].movieTitle;\n   }\n\n   function sendNewOpinion(string movieTitle, int mark) public returns (uint) {\n       require(mark >= 0);\n       require(mark <= 5);\n\n       require(!hasVoted(msg.sender, movieTitle));\n\n       Opinion memory opinion = Opinion(msg.sender, movieTitle, mark);\n       return opinions.push(opinion);\n   }\n\n   function getMovieMark(string movieTitle) public constant returns (int) {\n       int sum = 0;\n       int numberMark = 0;\n       for(uint i = 0; i < opinions.length; i++){\n           if(keccak256(opinions[i].movieTitle) == keccak256(movieTitle)){\n               sum += opinions[i].mark;\n               numberMark++;\n           }\n       }\n       if (numberMark > 0)\n           return sum/numberMark;\n       else\n           return -1;\n   }\n}",
  "sourcePath": "/Users/thomasfouan/Documents/Cours/Blockchain/projet/contracts/MovieMark.sol",
  "compiler": {
    "name": "solc",
    "version": "0.4.18+commit.9cf6e910.Emscripten.clang"
  },
  "schemaVersion": "1.0.1",
  "updatedAt": "2017-12-12T21:30:26.133Z"
}